:020000040800F2
:1000000050070020CD0100085316000831150008E4
:1000100051160008D3020008151A0008000000005D
:10002000000000000000000000000000571600085B
:10003000D5020008000000005516000859160008F7
:10004000E7010008E7010008E7010008E7010008F0
:10005000E7010008E7010008E7010008E7010008E0
:10006000E7010008E7010008E7010008E7010008D0
:10007000E7010008E7010008E7010008E7010008C0
:10008000E7010008E7010008E7010008E7010008B0
:10009000E7010008E7010008E7010008E7010008A0
:1000A000E7010008E7010008E7010008E701000890
:1000B000BD160008E7010008E7010008E701000895
:1000C000E7010008E7010008E7010008E701000870
:1000D000E7010008091A0008E7010008E701000825
:1000E000E7010008E7010008E7010008E701000850
:1000F000E7010008E7010008E7010008E701000840
:10010000E7010008E7010008E7010008E70100082F
:10011000E7010008E7010008E7010008E70100081F
:10012000E7010008E7010008E7010008E70100080F
:1001300000F002F800F03AF80AA090E8000C8244BF
:100140008344AAF10107DA4501D100F02FF8AFF29C
:10015000090EBAE80F0013F0010F18BFFB1A43F0A5
:10016000010318477C2100009C210000103A24BFA5
:1001700078C878C1FAD8520724BF30C830C144BF0C
:1001800004680C607047000000230024002500264E
:10019000103A28BF78C1FBD8520728BF30C148BFEA
:1001A0000B6070471FB51FBD10B510BD00F058F8AB
:1001B0001146FFF7F7FF01F03FFC00F076F803B4BB
:1001C000FFF7F2FF03BC00F07DF80000094880470C
:1001D00009480047FEE7FEE7FEE7FEE7FEE7FEE729
:1001E000FEE7FEE7FEE7FEE704480549054A064B41
:1001F00070470000BB1600083101000850010020C4
:100200005007002050030020500300204FF0000250
:1002100000B5134694469646203922BFA0E80C50FC
:10022000A0E80C50B1F12001BFF4F7AF090728BFD7
:10023000A0E80C5048BF0CC05DF804EB890028BF53
:1002400040F8042B08BF704748BF20F8022B11F07C
:10025000804F18BF00F8012B7047704770477047F8
:10026000754600F02BF8AE4605006946534620F06F
:100270000700854618B020B5FFF7B6FFBDE820405F
:100280004FF000064FF000074FF000084FF0000B52
:1002900021F00701AC46ACE8C009ACE8C009ACE805
:1002A000C009ACE8C0098D46704710B50446AFF3ED
:1002B00000802046BDE81040FFF781BF004870472E
:1002C000F000002001491820ABBEFEE72600020026
:1002D0007047FEE7704710B590F821100022022900
:1002E00005D00421816380F82020012010BD016821
:1002F0000B6823F00E030B6001680B6823F0010309
:100300000B6090F84030C46B012101FA03F3636085
:1003100080F8211080F82020104610BD2DE9F05FF4
:1003200090F821100024022903D0042181630124C4
:1003300085E001680A6822F00E020A6001680A6816
:1003400022F001020A603F4E3E4FB215DFF8F4C0C2
:10035000DFF8F090DFF8ECA0DFF8E8B0DFF8E4E0D9
:100360000168783F13011502ACF1640CA9F1500942
:10037000AAF13C0AABF1280BAEF1140E4FF4801831
:10038000B14227D9B9420ED0614512D049451DD09E
:10039000514518D0594518D0714501D1424615E054
:1003A000294EB14201D1012210E0274E1436B1424C
:1003B00001D110220AE0244E2836B14206D0224A4A
:1003C0003C32914201D11A4600E02A461E49091FDB
:1003D0000A602BE0B94213D0614517D0494522D0BD
:1003E00051451DD059451DD0714501D142461AE0F5
:1003F000B14202D14FF0807215E0134EB14201D1EB
:10040000012210E0104E1436B14201D110220AE050
:100410000D4E2836B14206D00B4A3C32914201D1F2
:100420001A4600E02A46074980394A60012180F8CF
:100430002110002180F82010416B01B1884720462F
:10044000BDE8F09F80000240080402402DE9F84F0B
:10045000DFF8C891002409F1040A0AF1040B2346CD
:100460000F270BF1040ED1E00125A54006EA050295
:10047000AA4276D1DFF8A8C14E68A6EB0C08664503
:100480002BD00DDC032E34D005DC36B3012E19D071
:10049000022E2FD11BE0112E16D0122E2AD119E0D8
:1004A000B8F5881F19D006DCB8F5803F15D0B8F52F
:1004B000801F1FD111E0B8F5001F0ED0B8F5041F42
:1004C00018D10AE0CB6815E0CB681B1D12E0CB68A1
:1004D00008330FE0CB680C330CE08B682BB1012B99
:1004E0004FF0080303D0456104E0042302E00561F6
:1004F00000E00023FF2A01D8064601E000F10406CF
:100500004FEA840501D9A5F12005D6F8008007FA45
:1005100005FC28EA0C0803FA05F548EA0508C6F8C0
:1005200000804D68ED0070D53E4DAE6946F0010685
:10053000AE61AD6924F0030605F0010500953A4D62
:1005400006EB050CDCF80850A607360F07FA06F88C
:1005500025EA0805DFF8D480404503D14FF00008B4
:1005600025E052E0DFF8C880404502D14FF0010895
:100570001DE0DFF8C080404502D14FF0020816E0D0
:10058000DFF8B480404502D14FF003080FE0DFF8F8
:10059000AC80404502D14FF0040808E0DFF8A080AD
:1005A000404502D14FF0050801E04FF0060808FA77
:1005B00006F848EA0508CCF808804D68D9F80060CC
:1005C000ED034D4601D5164300E096432E604D687D
:1005D000DAF80060AD03554601D5164300E09643B6
:1005E0002E604D68DBF80060ED025D4601D51643D4
:1005F00000E096432E604D68DEF80060AD0275465F
:1006000001D5164300E096432E60641C0A68164626
:10061000E2407FF429AFBDE8F88F000000040140FC
:1006200000001110001002400000014000080140CD
:10063000000C01400010014000140140001801406E
:10064000001C01408068084000D0012070470AB1BA
:10065000016170470904FBE70148806870470000AA
:1006600014000020024881680278114481607047BC
:1006700014000020074810B5016841F01001016026
:10068000032000F075F80F2000F006F800F024F8C1
:10069000002010BD0020024070B50D4D04464FF4FF
:1006A0007A712878B1FBF0F00A490968B1FBF0F0E3
:1006B00000F0ECFA48B9102C07D200222146501E57
:1006C00000F036F800206C6070BD012070BD0000A5
:1006D00014000020200000200C4808B5816941F07A
:1006E00001018161816901F001010091C16941F05D
:1006F0008051C161C06900F0805000900448416899
:1007000021F0E06141F00071416008BD001002403D
:1007100000000140002809DB00F01F020121914088
:100720004009800000F1E020C0F80011704700008F
:10073000F0B40E4B1B680C46C3F30223C3F107054C
:10074000042D00D90425191D072901D2002300E03A
:10075000DB1E012606FA05F1491E214099409E4004
:10076000761E16403143F0BC01F055B90CED00E0A7
:10077000064900F0070208684FF6FF03184040EAF8
:100780000220034A10430860704700000CED00E0AF
:100790000000FA052DE9F0470F46050061D0434EF1
:1007A000306800F00700B84209D2306820F0070036
:1007B00038433060306800F00700B84251D12868F3
:1007C0003B4C810712D5400703D5606840F4E060D8
:1007D00060602878000703D5606840F4605060606E
:1007E0006068A96820F0F000084360602878C007BE
:1007F00028D06868012810D02168022810D0890705
:1008000000292EDA616821F0030101436160FFF7DE
:1008100023FF804641F288390DE021688903EFE724
:100820008901EDE7FFF718FFA0EB0801494502D960
:100830000320BDE8F0876068696800F00C00B0EB49
:10084000810FEFD1306800F00700B8420BD9306853
:1008500020F0070038433060306800F00700B842ED
:1008600001D00120E5E72878400705D56068E968F0
:1008700020F4E060084360602878000706D56068CF
:10088000296920F4605040EAC100606000F038F847
:100890006168084AC1F30311515CC8400649086009
:1008A00006480068FFF7F8FE0020C2E7002002407B
:1008B00000100240C622000820000020180000207E
:1008C0000448054900684968044AC1F30221515CA3
:1008D000C84070472000002000100240D6220008C7
:1008E0000448054900684968044AC1F3C221515CC3
:1008F000C84070472000002000100240D6220008A7
:1009000012A185B00FC98DE80F0014A0144A006829
:1009100004905168134801F00C03042B10D0082BED
:100920000ED1C1F38343C9031DF803000AD55168F2
:1009300004AAC1F34041515C0A4A5043B0FBF1F0B4
:1009400005B0704708494843FAE700000203040570
:10095000060708090A0B0C0D0E0F1010010200000B
:100960000010024000127A0000093D002DE9F84F06
:10097000040070D02078C04DC00749D06868C0F32B
:100980008100012807D06868C0F38100022809D1DE
:100990006868C00306D52868800339D560680028D8
:1009A000E7D035E06068B0F5803F0BD010B1B0F50E
:1009B000A02F11D0286820F480302860286820F407
:1009C000802002E0286840F480302860606890B1A0
:1009D000FFF742FE06460AE0286840F480202860BF
:1009E000F0E700BFFFF738FE801B642873D8286843
:1009F0008003F7D50CE0FFF72FFE064605E000BFA9
:100A0000FFF72AFE801B6428F0D828688003F7D4FB
:100A100020789A4E80074FF001094FF0000839D531
:100A2000686810F00C0F07D06868C0F381000228D6
:100A300009D16868C00306D42868800714D52069E6
:100A4000012808D110E02069B0B1C6F80090FFF786
:100A500003FE074605E00AE1FFF7FEFDC01B022882
:100A6000C4D828688007F7D52868616920F0F800A5
:100A700040EAC10028600DE0C6F80080FFF7ECFDF9
:100A8000074604E0FFF7E8FDC01B022823D82868CA
:100A90008007F7D4207800072CD57948A169D9B10F
:100AA000C0F80090FFF7D8FD074604E0FFF7D4FD3B
:100AB000C01B02280FD8686A8007F7D571484FF429
:100AC000FA510068B0FBF1F0009000BF0098411EA1
:100AD0000091FAD20EE080E0C0F80080FFF7BCFD84
:100AE000074604E0FFF7B8FDC01B022875D8686A06
:100AF0008007F7D42078400760D5E8690027C00058
:100B000008D4E86940F08050E861E869012700F006
:100B1000805000905C480168C90513D40168834681
:100B200041F480710160FFF797FD824606E000BF47
:100B3000FFF792FDA0EB0A0064284ED8DBF8000016
:100B4000C005F5D5E06801280AD008B1052813D002
:100B5000286A20F001002862286A20F0040002E0E0
:100B6000286A40F001002862E06841F2883B98B1B1
:100B7000FFF772FD82460BE0286A40F0040028620D
:100B8000EEE700BFFFF768FDA0EB0A0159455AD810
:100B9000286A8007F6D50CE0FFF75EFD824605E087
:100BA000FFF75AFDA0EB0A0159454CD8286A800787
:100BB000F6D41FB1E86920F08050E861E06988B39D
:100BC0006968C1F38101022944D00228C6F8608017
:100BD00004D0FFF741FD044638E034E0FFF73CFD68
:100BE000074604E0FFF738FDC01B02282BD8286811
:100BF0008001F7D4206AB0F5803F05D16868A1680C
:100C000020F4003008436860D4E9080108436968AB
:100C100021F4741108436860C6F86090FFF71CFD6A
:100C2000044606E025E000BFFFF716FD001B022882
:100C300009D828688001F7D51BE000BFFFF70CFD3D
:100C4000001B022802D90320BDE8F88F2868800124
:100C5000F4D40EE00128F7D06868226A00F48031ED
:100C6000914204D1616A00F47010884201D00120E1
:100C7000EAE70020E8E700000010024000004242DE
:100C800080044242200000200070004010B5401E49
:100C9000B0F1807F01D3012010BD4FF0E0246061EE
:100CA0000F21601700F0B7FE0020A061072020612F
:100CB000002010BD7047704770B590F83C20012AA5
:100CC0002CD0012480F83C40022280F83D200368AB
:100CD0005A689D6822F070060A6832435A60104BC9
:100CE00002689A420ED00F4B9A420BD0B2F1804F5D
:100CF00008D00D4B9A4205D00C4B9A4202D00C4BB7
:100D00009A4204D1496825F080031943916080F824
:100D10003D40002180F83C10084670BD022070BDA7
:100D2000002C014000340140000400400008004055
:100D3000000C004010B5040003D094F83D0010B141
:100D400007E0012010BD002084F83C00204600F0A0
:100D50001FF8022084F83D00211D206800F0B4FC3B
:100D6000012084F8460084F83E0084F83F0084F8AF
:100D7000400084F8410084F8420084F8430084F87D
:100D8000440084F8450084F83D00002010BD0000B8
:100D900008B50068B0F1804F12D10A48C16941F02E
:100DA0000101C161C069002200F0010000901146FC
:100DB0001C20FFF7BDFCBDE808401C20FFF7AABCC3
:100DC00008BD00000010024090F83D10012901D03C
:100DD00001207047022180F83D100168CA6842F086
:100DE0000102CA6000680E4988420ED00D4988424F
:100DF0000BD0B0F1804F08D00B49884205D00B4989
:100E0000884202D00A49884204D1816801F0070172
:100E1000062903D0016841F00101016000207047FC
:100E2000002C014000340140000400400008004054
:100E3000000C004070B5044690F83C00012817D023
:100E4000012584F83C50022084F83D002068826827
:100E500022F0770222F47F4282600868502830D066
:100E60000DDC20284DD005DC98B310283BD148E09C
:100E7000022070BD302844D0402834D139E06028A9
:100E800028D0702806D0B0F5805F2CD0B0F5005F78
:100E900029D10AE0CB68D1E90121206800F05AFC91
:100EA0002068816841F0770109E0CB68D1E9012130
:100EB000206800F04FFC2068816841F48041816027
:100EC00011E0CA684968206800F056FC502120688B
:100ED00007E016E0CA684968206800F05EFC6021FF
:100EE000206800F041FC84F83D50002084F83C006C
:100EF00070BDCA684968206800F03EFC4021206847
:100F0000EFE7226801461046EBE7704770B50446EC
:100F1000006801694FF00005C943890715D4C1680D
:100F2000C943890711D4E91E016101202077206897
:100F300080698007204602D0FFF7E7FF04E000F059
:100F400098F8204600F096F8257720680169C94393
:100F5000490717D4C168C943490713D46FF0040186
:100F60000161022020772068806910F4407F2046CC
:100F700002D0FFF7CAFF04E000F07BF8204600F043
:100F800079F8257720680169C943090716D4C16833
:100F9000C943090712D46FF00801016104202077CA
:100FA0002068C0698007204602D0FFF7AEFF04E04A
:100FB00000F05FF8204600F05DF8257720680169B1
:100FC000C943C90617D4C168C943C90613D46FF011
:100FD00010010161082020772068C06910F4407F6B
:100FE000204602D0FFF791FF04E000F042F82046CF
:100FF00000F040F8257720680169C943C90708D186
:10100000C168C943C90704D1891E0161204600F0A7
:1010100033F820680169C943090609D4C168C94386
:10102000090605D46FF0800101612046FFF742FEFA
:1010300020680169C943490609D4C168C943490602
:1010400005D46FF040010161204600F03BF82068B4
:101050000169C94389060BD4C168C943890607D40D
:101060006FF0200101612046BDE87040FFF723BE0C
:1010700070BD704770470000104910B588421CD100
:101080000F4C6078002818D004F10C00A178417052
:10109000E1788170A2686421B2FBF1F3C370B2FB06
:1010A000F1F301FB1321017101460448FF230722DC
:1010B000483000F0E3F90020607010BD24000020EB
:1010C000000000207047704770470000F8B50268C4
:1010D00004461068D168536910F00F0F4FF00005F7
:1010E00053D003F0010601F4907737435FD0C20775
:1010F00005D0CA0503D5226C42F0010222644207E2
:1011000005D5DA0703D0226C42F00202226482077E
:1011100005D5DA0703D0226C42F0040222640207EC
:1011200007D501F02002324303D0226C42F00802BE
:101130002264226C002A34D0800604D5880602D5A9
:10114000204600F05CFB20684069216CC0F38010F1
:10115000090700D430B3204600F039FB206841690C
:1011600049061BD5416921F040014161A06BA8B13E
:1011700058494163A06BFFF7D1F8002811D0A06B4C
:10118000416B01B0BDE8F040084783060FD58B06E0
:101190000DD52046BDE8F84000F031BB2046FFF7F2
:1011A00093FFF8BD2046FFF78FFF2564F8BD266B3F
:1011B0002023012E52D1C60650D5CE064ED510683A
:1011C00050680090506940062AD5A16B08684068B5
:1011D0000004000CEAD0A68D8642E7D9E085886934
:1011E000202818D0D06820F48070D0602068416931
:1011F00021F0010141612068416921F04001416114
:1012000084F83E3025632068C16821F01001C16078
:10121000A06BFFF760F8A08DE18D401A81B219E054
:10122000A08DE18D401A81B2E08D0028BED000294A
:10123000BCD0D06820F49070D0602068426922F061
:101240000102426184F83E3025632068C26822F0C2
:101250001002C2602046FFF736FFF8BD05062BD509
:101260000D0629D594F83D002128F6D1A068B0F5E7
:10127000805F01D12069B0B1206A411C21622168E0
:1012800000784860E08C401E0004000CE084E4D14B
:101290002068C16821F08001C1602068C16841F008
:1012A0004001C160F8BD206A0088C0F308005060AA
:1012B000206A801C2062E5E74006F3D54806F1D598
:1012C000D168204621F04001D16084F83D3000F023
:1012D0002EF9F8BDBF17000870B5040004D094F8CB
:1012E0003D00002510B106E0012070BD84F83C509F
:1012F000204600F023F8242084F83D002068C168CF
:1013000021F40051C160204600F0D4FA2068016940
:1013100021F4904101612068416921F02A01416175
:101320002068C16841F40051C1602564202084F820
:101330003D0084F83E00002070BD000030B585B04F
:101340000024009401940294039400681849884290
:101350002CD11848816941F480418161816901F48F
:1013600080410491816941F0040181618069124DDD
:1013700000F0040004904FF40070009002200190EF
:101380000320039069462846FFF760F82815CDE949
:101390000004694628460294FFF758F800221146D7
:1013A0002520FFF7C5F92520FFF7B4F905B030BDBA
:1013B00000380140001002400008014090F83E3023
:1013C000202B0ED159B152B190F83C30012B08D0EE
:1013D000012380F83C300023036300F0C7BA0120EA
:1013E000704702207047000070B5224900230A7838
:1013F000FF2A2ED220480C798454521CD2B20A7093
:10140000024412F8014C0A2C28D112F8022C0D2AA1
:1014100024D14478AA2C0BD1C278AA2A08D1027907
:10142000AA2A05D18279AA2A02D1C279AA2A1ED073
:10143000104A521D1470C578047905EB850504EB3C
:1014400045045470C479807900EB800004EB4000BF
:1014500090700B7040210848FEF7D8FE0549BDE8A2
:10146000704005480122091D4438FFF7A7BF01203D
:101470004870EEE700000020B00000202DE9F8439E
:10148000044690F83D001F4616460D4620284CD1D4
:10149000C5B1BEB194F83C00012846D0012084F8C3
:1014A0003C004FF00008C4F84080212084F83D0043
:1014B000FFF7D2F8A6848146E684A068B0F5805F85
:1014C00003D004E00120BDE8F883206928B12E464E
:1014D0005FF0000584F83C800EE00026FAE78021EA
:1014E000204600F05EFAA0B9AEB116F8010B2168F3
:1014F0004860E08C401EE084E08C4B464FF00002D8
:1015000000970028EBD14FF04001204600F049FA47
:1015100030B10320D7E735F8020BC0F30800E6E747
:10152000202084F83D000020CDE70220CBE7704763
:10153000FEE700002DE9F04385B000242748009421
:10154000019402940394816941F0100181618169E1
:1015500001F010010491816941F0200181618169EC
:1015600001F020010491816941F0040181618069E9
:10157000DFF86C8000F00400049001220321404653
:10158000FFF765F8DFF85C90012207214846FFF776
:101590005EF803260227012503970096CDE9015442
:1015A00069464046FEF752FF04208DE891006946E7
:1015B0004046FEF74BFF0720CDE90005CDE9024686
:1015C00069464846FEF742FF18208DE8310069461B
:1015D0004846FEF73BFF05B0BDE8F083001002402F
:1015E000001001400008014010B586B000241748E3
:1015F000009401940294039404944FF08041059464
:10160000016040F2CF21C0E901143121C0E9031487
:1016100080218161FFF78EFB08B172B6FEE74FF4BF
:101620008050009069460948FFF704FC08B172B683
:10163000FEE7049404A905480594FFF73DFB002844
:1016400001D072B6FEE706B010BD000024000020F5
:10165000FEE7FEE770477047FFF704B830B58FB07C
:1016600028216846FEF7D2FD14210AA8FEF7CEFD18
:1016700001210804CDE90010002402940225049100
:10168000CDE907504FF4E01009906846FFF76EF976
:1016900008B172B6FEE70F20CDE90A054FF480606D
:1016A000CDE90C4002210AA80E94FFF773F8002838
:1016B00001D072B6FEE70FB030BD70470148FFF7AA
:1016C00025BC000024000020F0B502681C4B1D4D15
:1016D0001D4E1E4F1E4C4FF0804C984209D0A04228
:1016E00007D0604505D0A84203D0B04201D0B8422F
:1016F00004D122F0700E4A6842EA0E02984209D0E4
:10170000A04207D0604505D0A84203D0B04201D026
:10171000B84203D122F44075CA682A434D6922F0C9
:1017200080022A4302608A68C2620A688262984222
:1017300001D0A04201D10969016301214161F0BDDD
:10174000002C01400004004000080040000C004054
:101750000034014010B5846842EA032224F47F4437
:101760000A432243826010BD826822F070020A435D
:1017700042F007018160704710B5036A046A24F0E3
:1017800001040462846924F0F00444EA021423F0A2
:101790000A020A438461026210BD10B5036A23F095
:1017A000100303628369046A23F4704343EA02323C
:1017B00024F0A00343EA01118261016210BD10B55B
:1017C000406A0021C185C184FFF77EFC10BD01681D
:1017D000CA6822F49072CA6001684A6922F0010264
:1017E0004A61016B012904D10168CA6822F0100224
:1017F000CA60202180F83E1000210163704708B5BF
:1018000090F83E10222901D0022008BD82684FF4D2
:1018100080539A4201D1016921B1816A9A421BD059
:101820004AB10AE00268816A5268C2F308020A807B
:10183000816A891C08E0026972B10268526802F08C
:101840007F020A70816A491C8162C18D491E0904A8
:10185000090CC18503D019E002685268F1E70168FC
:10186000CA6822F02002CA600168CA6822F4807245
:10187000CA6001684A6922F001024A61202180F8A9
:101880003E10016B012903D0FFF7AEFD002008BD1B
:10189000002101630168CA6822F01002CA60016871
:1018A0000A68D20602D50A6849680091818DFFF75F
:1018B0000AFCEBE770B5044600680169E26821F4B0
:1018C0004051114301612169A068084361690843DF
:1018D0002168CA6841F20C639A430243CA602068D7
:1018E0004169A26921F44071114341611E49206898
:1018F000884202D1FEF7F4FF01E0FEF7E1FF00EBC2
:10190000C00101EB0012606864218000B2FBF0F3BB
:10191000B3FBF1F36FF018067343B2FBF0F5B2FBC3
:10192000F0F605EB8305322303EB0515B5FBF1F566
:10193000B6FBF1F605F0F00505EB0615B2FBF0F687
:10194000B2FBF0F0B0FBF1F06FF01802504306EB81
:10195000800003EB0010B0FBF1F0216800F00F00F5
:101960002844886070BD0000003801408162828593
:10197000C28500210164222280F83E2080F83C10BC
:101980000168CA6842F48072CA6001684A6942F01C
:1019900001024A610068C16841F02001C160002075
:1019A00070472DE9F041984617460E460446069DBD
:1019B0001DE0681C1BD02DB1FEF74EFEA0EB080009
:1019C000A84214D92068C16821F4D071C160206890
:1019D000416921F001014161202084F83D0084F833
:1019E0003E00002084F83C000320BDE8F081206820
:1019F000006836EA000004D00020B842D9D00020A8
:101A0000F3E70120F9E700000148FFF75FBB0000A2
:101A10006C000020FEE70907090E002804DB00F136
:101A2000E02080F80014704700F00F0000F1E02083
:101A300080F8141D704700001CB5FEF71BFEFFF771
:101A40000DFEFFF777FD47484549002501604FF43B
:101A50007A31C0E901150C21C560C0E904518561E6
:101A6000C561FFF739FC08B172B6FEE7FFF7BCFDB0
:101A700001223D493B48FFF7A1FC3A484838FFF7AF
:101A8000A3F93A4E002201213046FEF7E0FDDFF8CF
:101A9000D8A0DFF8DC800AF1010AAAF10504354F6D
:101AA000A94606E000223946142000F06BF8C4F87D
:101AB0000890A0780028F5D1DFF8BCB001220221FF
:101AC0005846FEF7C4FD454604E0012229462D2074
:101AD00000F058F808213046FEF7B4FD0028F4D095
:101AE000A84610213046FEF7ADFD78B19AF80120E6
:101AF0005146002AE2D088780028DFD00123E37025
:101B00009AF80010012907D031B106E000224146C1
:101B10002D2000F037F8E4E70091570800F051FA63
:101B200002460B460020154900F0C4F80022144B71
:101B300000F05AFA00F016FA0025019005E0DDE900
:101B40000020414600F01EF86D1CB5EB870FF6DB58
:101B500084F80390A4F8059084F80790AEE700009D
:101B6000003801406C000020040000200008014003
:101B70000000B4420000F041001001400000E03FCE
:101B800000408F402DE9F05F06461446424D08465E
:101B900000F028FB2A46414B00F08CF800F0E2F9F7
:101BA000074614B1012C02D006E0012200E0002219
:101BB00002213B48FEF74BFD002506EBD670DFF80F
:101BC000E4A0DFF8E4B046104FF0E028DFF8DC9046
:101BD00051E0002204213248FEF739FDD8F81820E0
:101BE000DAF80030B3FBFBFCB3FBFBF00CFB06FCAC
:101BF000ACEB5000D8F81810511A8142FAD30122E8
:101C000004212748FEF723FDD8F818204046DAF8CB
:101C10000030B3FBFBFCB3FBFBF10CFB06FCACEBB5
:101C200051018369D31A8B42FBD300220221204841
:101C3000FEF70DFD04211E48FEF704FD012800D12A
:101C40003CB104211A48FEF7FDFC58B1012C09D023
:101C500010E0012211461248FEF7F9FC002089F835
:101C6000020007E0002201210D48FEF7F0FC0121EF
:101C700089F802106D1CBD42ABDB99F80210484692
:101C800019B18168012C05D032390120C9F808103A
:101C9000BDE8F09F3231F8E7CDCCCCCCCCCCAC3F1A
:101CA000000801402000002040420F0000000020FA
:101CB000001001402DE9C04130B4DFF8A0C23CEA79
:101CC000111418BF3CEA131400F0EC8081EA0305FC
:101CD0001CEA111444EAD57418BF1CEA131500F06D
:101CE000C780A4EB05044FF0004545EAC12145EA51
:101CF000C32341EA505143EA525304F17F7499429D
:101D000004F500344FEAC0204FEAC22208BF9042D7
:101D100000F09C804FEA13650FF24016765D4FEAA3
:101D2000134506FB05F7C7F1807706FB07F74FEA77
:101D3000D737A7FB03687642C8F58038A7FB06CEE5
:101D400038BFA8F1010807FB08E64FF0000EA6FB1C
:101D5000028CE6FB03CEDCF1000CCEF1004E38BF66
:101D6000AEF1010EA6FB0C584FF000074FF0000536
:101D7000E6FB0E87A1FB08C6A0FB07CE16EB0E06FE
:101D800045F10005E1FB076515F1E04E7EBFA4F5C6
:101D900080345FEA46066D4116F1800745F1000583
:101DA0004FEA17274FEA066647EA0567A6F1DE46BF
:101DB000B6F1805F4FEA15251FD9384624F0010C93
:101DC00005EBC471BCF1FE6F01EB0C1102D8F0BC45
:101DD000BDE8008124425CBF01F5801E9EEAC47FFD
:101DE00002D4F0BCBDE80081244238D4F0BCA1F19B
:101DF000C041BDE8004100F0EFB94FEAD22242EA0B
:101E000043524FEAD323A7FB02864FEAD02040EA91
:101E1000415007FB03661EEA0E0F4FEAD12105FB76
:101E2000026658BFA6EB0056B6EB00564FEA520EBC
:101E30004EEAC37E18EB0E0E56EB530EBDD518EBD3
:101E400002085E417F1C55F10005B6E74FF480158E
:101E50004FF000074FF000064FF00008ADE7F0BC70
:101E60004FF0000001F1C04101F00041BDE80081E8
:101E700011EA0C1F0CEA131500D00CE013EA0C1F3A
:101E800000F025804FF00000F0BC81EA030101F072
:101E90000041BDE80081F0BCBDE8004181EA0301DA
:101EA00000F09AB9F0BCBDE8004170B500F046F909
:101EB000097EFC3E00F007B881EA03014FF0000004
:101EC00001F00041704781EA030100F085B9F0BCE0
:101ED000BDE800414FF0000021497047FFFDFBF9CC
:101EE000F7F5F4F2F0EEEDEBE9E8E6E4E3E1E0DE4D
:101EF000DDDBDAD8D7D5D4D3D1D0CFCDCCCBCAC8BF
:101F0000C7C6C5C4C2C1C0BFBEBDBCBBBAB9B8B7E5
:101F1000B6B5B4B3B2B1B0AFAEADACABAAA9A8A8D8
:101F2000A7A6A5A4A3A3A2A1A09F9F9E9D9C9C9BA6
:101F30009A99999897979695959493939291919051
:101F40008F8F8E8E8D8C8C8B8B8A898988888787E2
:101F50008685858484838382828181800000FF0757
:101F60000000F87F4FEA41034FEA5353A3F5806323
:101F7000D3F11E03C8BFD3F1210C0CDD4FF000429A
:101F800042EAC12242EA505232FA03FC8CEAE17C76
:101F9000ACEBE1707047102BC4BF0020704703F515
:101FA000787CBCF1FF3F04D06FF0004282EA210050
:101FB000704770B500F0C2F8499224800020704745
:101FC000F2E7B0FA80F310FA03F10AD0C3F11D036F
:101FD00003F580634FEA41504FEA035202EBD121EF
:101FE00070474FF000007047DFF848C170B51CEA39
:101FF000111E1EBF1CEA13159EEA0C0F95EA0C0F6A
:1020000000F06F8081EA030423EA4C134EEAD47E89
:1020100021EA4C1141F4801143F48013AE44A1FB3A
:10202000024CA0FB0365AEF17F7E361955EB0C0523
:10203000A1FB034C4CF10003A0FB021C16EB0C06A9
:10204000654153F10003094218BF46F0010613F43D
:10205000007F0BD14FEA03314FEA0530340341EAE8
:10206000155140EA16506FF003020AE04FEAC3210F
:102070004FEAC520F40241EA555140EA56506FF04C
:10208000020202EB2E4201EB025585EACE710AD024
:102090005FEA440C18BF24F0004450F1000041F105
:1020A000000120EAD47040F2FE7C624500D270BD8F
:1020B000A84214BF4FF080444FF04044002E08BFA8
:1020C0000024BEF1806FA8BFA1F1C041BDE87040FF
:1020D00080F282804FF0000001F1C04101F0004128
:1020E00070479EEA0C0F0CEA131518BF95EA0C0F07
:1020F00006D04FF0000081EA030E0EF0004170BDE3
:1021000000F01CF88900013E00F007B800F009B8A3
:102110004FEA430C5FEA5C5C08D081EA030100F0FF
:102120005BB84FEA410C5FEA5C5CF6D14FF000000F
:10213000014970470000FF070000F87F0EF1020E12
:102140002EF0030E5EF8046B364205D4012A43EBF1
:10215000030515F5001F12D8012841EB010C1CF5F1
:10216000001F0CD80ED14FEAD17C15F5001F0CEBE7
:102170004C0C0CF1020C08BF4CEBD37C04E04FF08C
:10218000080C01E04FEAD37C0CEB4C0526FA05F66F
:1021900006F00706B6F1040C06D20EEB860CBDE87D
:1021A00070404CF0010C6047DFE80CF0090B0202B4
:1021B0004FF000414FF00000A1F5002170BD19461D
:1021C0001046012851EB010418BFD4F5001484BF58
:1021D000002001F0004170BD0808A0F500114FEA91
:1021E0003101704743004FEAD30C4FEA3C0C4340A7
:1021F0001FBF40070CF1605113F0FE4F70471CF0F9
:10220000006F03D100200CF0004170470CF0004338
:1022100043EA507010B540EACC0000F00EF800BF61
:10222000000000924FEA0001FFF7D6BF4FF00041D7
:102230004FF00000A1F5002170470EF1020E2EF0C4
:10224000030E5EF8044B244204D44FEA4102B2F17B
:102250007F4F11D84FEA4003B3F17F4F0CD80ED116
:102260004FEAD07CB2F17F4F0CEB4C0C0CF1020C1E
:1022700008BF4CEBD17C04E04FF0080C01E04FEAC2
:10228000D17C0CEB4C0324FA03F404F00704B4F102
:10229000040C06D20EEB840CBDE810404CF0010C8F
:1022A0006047DFE80CF0070802024FF00040A0F59D
:1022B000800010BD0846420018BFD2F1807288BF6E
:1022C00000F0004010BD000000000000000001020E
:1022D00003040607080900000000010203040000CF
:1022E0000023000800000020240000006C0100080A
:1022F00024230008240000202C0700008801000887
:10230000000001000000000000000000FF000000CD
:10231000000D0A0001000000100000000000000095
:042320000024F400A1
:0400000508000131BD
:00000001FF
