:020000040800F2
:1000000058070020CD0100085716000835150008D4
:1000100055160008D3020008191A00080000000055
:100020000000000000000000000000005B16000857
:10003000D502000800000000591600085D160008EF
:10004000E7010008E7010008E7010008E7010008F0
:10005000E7010008E7010008E7010008E7010008E0
:10006000E7010008E7010008E7010008E7010008D0
:10007000E7010008E7010008E7010008E7010008C0
:10008000E7010008E7010008E7010008E7010008B0
:10009000E7010008E7010008E7010008E7010008A0
:1000A000E7010008E7010008E7010008E701000890
:1000B000C1160008E7010008E7010008E701000891
:1000C000E7010008E7010008E7010008E701000870
:1000D000E70100080D1A0008E7010008E701000821
:1000E000E7010008E7010008E7010008E701000850
:1000F000E7010008E7010008E7010008E701000840
:10010000E7010008E7010008E7010008E70100082F
:10011000E7010008E7010008E7010008E70100081F
:10012000E7010008E7010008E7010008E70100080F
:1001300000F002F800F03AF80AA090E8000C8244BF
:100140008344AAF10107DA4501D100F02FF8AFF29C
:10015000090EBAE80F0013F0010F18BFFB1A43F0A5
:1001600001031847781F0000981F0000103A24BFB1
:1001700078C878C1FAD8520724BF30C830C144BF0C
:1001800004680C607047000000230024002500264E
:10019000103A28BF78C1FBD8520728BF30C148BFEA
:1001A0000B6070471FB51FBD10B510BD00F058F8AB
:1001B0001146FFF7F7FF01F041FC00F076F803B4B9
:1001C000FFF7F2FF03BC00F07DF80000094880470C
:1001D00009480047FEE7FEE7FEE7FEE7FEE7FEE729
:1001E000FEE7FEE7FEE7FEE704480549054A064B41
:1001F00070470000BF1600083101000858010020B8
:100200005807002058030020580300204FF0000238
:1002100000B5134694469646203922BFA0E80C50FC
:10022000A0E80C50B1F12001BFF4F7AF090728BFD7
:10023000A0E80C5048BF0CC05DF804EB890028BF53
:1002400040F8042B08BF704748BF20F8022B11F07C
:10025000804F18BF00F8012B7047704770477047F8
:10026000754600F02BF8AE4605006946534620F06F
:100270000700854618B020B5FFF7B6FFBDE820405F
:100280004FF000064FF000074FF000084FF0000B52
:1002900021F00701AC46ACE8C009ACE8C009ACE805
:1002A000C009ACE8C0098D46704710B50446AFF3ED
:1002B00000802046BDE81040FFF781BF004870472E
:1002C000F800002001491820ABBEFEE7260002001E
:1002D0007047FEE7704710B590F821100022022900
:1002E00005D00421816380F82020012010BD016821
:1002F0000B6823F00E030B6001680B6823F0010309
:100300000B6090F84030C46B012101FA03F3636085
:1003100080F8211080F82020104610BD2DE9F05FF4
:1003200090F821100024022903D0042181630124C4
:1003300085E001680A6822F00E020A6001680A6816
:1003400022F001020A603F4E3E4FB215DFF8F4C0C2
:10035000DFF8F090DFF8ECA0DFF8E8B0DFF8E4E0D9
:100360000168783F13011502ACF1640CA9F1500942
:10037000AAF13C0AABF1280BAEF1140E4FF4801831
:10038000B14227D9B9420ED0614512D049451DD09E
:10039000514518D0594518D0714501D1424615E054
:1003A000294EB14201D1012210E0274E1436B1424C
:1003B00001D110220AE0244E2836B14206D0224A4A
:1003C0003C32914201D11A4600E02A461E49091FDB
:1003D0000A602BE0B94213D0614517D0494522D0BD
:1003E00051451DD059451DD0714501D142461AE0F5
:1003F000B14202D14FF0807215E0134EB14201D1EB
:10040000012210E0104E1436B14201D110220AE050
:100410000D4E2836B14206D00B4A3C32914201D1F2
:100420001A4600E02A46074980394A60012180F8CF
:100430002110002180F82010416B01B1884720462F
:10044000BDE8F09F80000240080402402DE9F84F0B
:10045000DFF8C891002409F1040A0AF1040B2346CD
:100460000F270BF1040ED1E00125A54006EA050295
:10047000AA4276D1DFF8A8C14E68A6EB0C08664503
:100480002BD00DDC032E34D005DC36B3012E19D071
:10049000022E2FD11BE0112E16D0122E2AD119E0D8
:1004A000B8F5881F19D006DCB8F5803F15D0B8F52F
:1004B000801F1FD111E0B8F5001F0ED0B8F5041F42
:1004C00018D10AE0CB6815E0CB681B1D12E0CB68A1
:1004D00008330FE0CB680C330CE08B682BB1012B99
:1004E0004FF0080303D0456104E0042302E00561F6
:1004F00000E00023FF2A01D8064601E000F10406CF
:100500004FEA840501D9A5F12005D6F8008007FA45
:1005100005FC28EA0C0803FA05F548EA0508C6F8C0
:1005200000804D68ED0070D53E4DAE6946F0010685
:10053000AE61AD6924F0030605F0010500953A4D62
:1005400006EB050CDCF80850A607360F07FA06F88C
:1005500025EA0805DFF8D480404503D14FF00008B4
:1005600025E052E0DFF8C880404502D14FF0010895
:100570001DE0DFF8C080404502D14FF0020816E0D0
:10058000DFF8B480404502D14FF003080FE0DFF8F8
:10059000AC80404502D14FF0040808E0DFF8A080AD
:1005A000404502D14FF0050801E04FF0060808FA77
:1005B00006F848EA0508CCF808804D68D9F80060CC
:1005C000ED034D4601D5164300E096432E604D687D
:1005D000DAF80060AD03554601D5164300E09643B6
:1005E0002E604D68DBF80060ED025D4601D51643D4
:1005F00000E096432E604D68DEF80060AD0275465F
:1006000001D5164300E096432E60641C0A68164626
:10061000E2407FF429AFBDE8F88F000000040140FC
:1006200000001110001002400000014000080140CD
:10063000000C01400010014000140140001801406E
:10064000001C01408068084000D0012070470AB1BA
:10065000016170470904FBE70148806870470000AA
:100660001C000020024881680278114481607047B4
:100670001C000020074810B5016841F0100101601E
:10068000032000F075F80F2000F006F800F024F8C1
:10069000002010BD0020024070B50D4D04464FF4FF
:1006A0007A712878B1FBF0F00A490968B1FBF0F0E3
:1006B00000F0ECFA48B9102C07D200222146501E57
:1006C00000F036F800206C6070BD012070BD0000A5
:1006D0001C000020280000200C4808B5816941F06A
:1006E00001018161816901F001010091C16941F05D
:1006F0008051C161C06900F0805000900448416899
:1007000021F0E06141F00071416008BD001002403D
:1007100000000140002809DB00F01F020121914088
:100720004009800000F1E020C0F80011704700008F
:10073000F0B40E4B1B680C46C3F30223C3F107054C
:10074000042D00D90425191D072901D2002300E03A
:10075000DB1E012606FA05F1491E214099409E4004
:10076000761E16403143F0BC01F057B90CED00E0A5
:10077000064900F0070208684FF6FF03184040EAF8
:100780000220034A10430860704700000CED00E0AF
:100790000000FA052DE9F0470F46050061D0434EF1
:1007A000306800F00700B84209D2306820F0070036
:1007B00038433060306800F00700B84251D12868F3
:1007C0003B4C810712D5400703D5606840F4E060D8
:1007D00060602878000703D5606840F4605060606E
:1007E0006068A96820F0F000084360602878C007BE
:1007F00028D06868012810D02168022810D0890705
:1008000000292EDA616821F0030101436160FFF7DE
:1008100023FF804641F288390DE021688903EFE724
:100820008901EDE7FFF718FFA0EB0801494502D960
:100830000320BDE8F0876068696800F00C00B0EB49
:10084000810FEFD1306800F00700B8420BD9306853
:1008500020F0070038433060306800F00700B842ED
:1008600001D00120E5E72878400705D56068E968F0
:1008700020F4E060084360602878000706D56068CF
:10088000296920F4605040EAC100606000F038F847
:100890006168084AC1F30311515CC8400649086009
:1008A00006480068FFF7F8FE0020C2E7002002407B
:1008B00000100240C4200008280000202000002072
:1008C0000448054900684968044AC1F30221515CA3
:1008D000C84070472800002000100240D4200008C3
:1008E0000448054900684968044AC1F3C221515CC3
:1008F000C84070472800002000100240D4200008A3
:1009000012A185B00FC98DE80F0014A0144A006829
:1009100004905168134801F00C03042B10D0082BED
:100920000ED1C1F38343C9031DF803000AD55168F2
:1009300004AAC1F34041515C0A4A5043B0FBF1F0B4
:1009400005B0704708494843FAE700000203040570
:10095000060708090A0B0C0D0E0F1010010200000B
:100960000010024000127A0000093D002DE9F84F06
:10097000040070D02078C04DC00749D06868C0F32B
:100980008100012807D06868C0F38100022809D1DE
:100990006868C00306D52868800339D560680028D8
:1009A000E7D035E06068B0F5803F0BD010B1B0F50E
:1009B000A02F11D0286820F480302860286820F407
:1009C000802002E0286840F480302860606890B1A0
:1009D000FFF742FE06460AE0286840F480202860BF
:1009E000F0E700BFFFF738FE801B642873D8286843
:1009F0008003F7D50CE0FFF72FFE064605E000BFA9
:100A0000FFF72AFE801B6428F0D828688003F7D4FB
:100A100020789A4E80074FF001094FF0000839D531
:100A2000686810F00C0F07D06868C0F381000228D6
:100A300009D16868C00306D42868800714D52069E6
:100A4000012808D110E02069B0B1C6F80090FFF786
:100A500003FE074605E00AE1FFF7FEFDC01B022882
:100A6000C4D828688007F7D52868616920F0F800A5
:100A700040EAC10028600DE0C6F80080FFF7ECFDF9
:100A8000074604E0FFF7E8FDC01B022823D82868CA
:100A90008007F7D4207800072CD57948A169D9B10F
:100AA000C0F80090FFF7D8FD074604E0FFF7D4FD3B
:100AB000C01B02280FD8686A8007F7D571484FF429
:100AC000FA510068B0FBF1F0009000BF0098411EA1
:100AD0000091FAD20EE080E0C0F80080FFF7BCFD84
:100AE000074604E0FFF7B8FDC01B022875D8686A06
:100AF0008007F7D42078400760D5E8690027C00058
:100B000008D4E86940F08050E861E869012700F006
:100B1000805000905C480168C90513D40168834681
:100B200041F480710160FFF797FD824606E000BF47
:100B3000FFF792FDA0EB0A0064284ED8DBF8000016
:100B4000C005F5D5E06801280AD008B1052813D002
:100B5000286A20F001002862286A20F0040002E0E0
:100B6000286A40F001002862E06841F2883B98B1B1
:100B7000FFF772FD82460BE0286A40F0040028620D
:100B8000EEE700BFFFF768FDA0EB0A0159455AD810
:100B9000286A8007F6D50CE0FFF75EFD824605E087
:100BA000FFF75AFDA0EB0A0159454CD8286A800787
:100BB000F6D41FB1E86920F08050E861E06988B39D
:100BC0006968C1F38101022944D00228C6F8608017
:100BD00004D0FFF741FD044638E034E0FFF73CFD68
:100BE000074604E0FFF738FDC01B02282BD8286811
:100BF0008001F7D4206AB0F5803F05D16868A1680C
:100C000020F4003008436860D4E9080108436968AB
:100C100021F4741108436860C6F86090FFF71CFD6A
:100C2000044606E025E000BFFFF716FD001B022882
:100C300009D828688001F7D51BE000BFFFF70CFD3D
:100C4000001B022802D90320BDE8F88F2868800124
:100C5000F4D40EE00128F7D06868226A00F48031ED
:100C6000914204D1616A00F47010884201D00120E1
:100C7000EAE70020E8E700000010024000004242DE
:100C800080044242280000200070004010B5401E41
:100C9000B0F1807F01D3012010BD4FF0E0246061EE
:100CA0000F21601700F0B9FE0020A061072020612D
:100CB000002010BD7047704770B590F83C20012AA5
:100CC0002CD0012480F83C40022280F83D200368AB
:100CD0005A689D6822F070060A6832435A60104BC9
:100CE00002689A420ED00F4B9A420BD0B2F1804F5D
:100CF00008D00D4B9A4205D00C4B9A4202D00C4BB7
:100D00009A4204D1496825F080031943916080F824
:100D10003D40002180F83C10084670BD022070BDA7
:100D2000002C014000340140000400400008004055
:100D3000000C004010B5040003D094F83D0010B141
:100D400007E0012010BD002084F83C00204600F0A0
:100D50001FF8022084F83D00211D206800F0B6FC39
:100D6000012084F8460084F83E0084F83F0084F8AF
:100D7000400084F8410084F8420084F8430084F87D
:100D8000440084F8450084F83D00002010BD0000B8
:100D900008B50068B0F1804F12D10A48C16941F02E
:100DA0000101C161C069002200F0010000901146FC
:100DB0001C20FFF7BDFCBDE808401C20FFF7AABCC3
:100DC00008BD00000010024090F83D10012901D03C
:100DD00001207047022180F83D100168CA6842F086
:100DE0000102CA6000680E4988420ED00D4988424F
:100DF0000BD0B0F1804F08D00B49884205D00B4989
:100E0000884202D00A49884204D1816801F0070172
:100E1000062903D0016841F00101016000207047FC
:100E2000002C014000340140000400400008004054
:100E3000000C004070B5044690F83C00012817D023
:100E4000012584F83C50022084F83D002068826827
:100E500022F0770222F47F4282600868502830D066
:100E60000DDC20284DD005DC98B310283BD148E09C
:100E7000022070BD302844D0402834D139E06028A9
:100E800028D0702806D0B0F5805F2CD0B0F5005F78
:100E900029D10AE0CB68D1E90121206800F05CFC8F
:100EA0002068816841F0770109E0CB68D1E9012130
:100EB000206800F051FC2068816841F48041816025
:100EC00011E0CA684968206800F058FC5021206889
:100ED00007E016E0CA684968206800F060FC6021FD
:100EE000206800F043FC84F83D50002084F83C006A
:100EF00070BDCA684968206800F040FC4021206845
:100F0000EFE7226801461046EBE7704770B50446EC
:100F1000006801694FF00005C943890715D4C1680D
:100F2000C943890711D4E91E016101202077206897
:100F300080698007204602D0FFF7E7FF04E000F059
:100F400098F8204600F096F8257720680169C94393
:100F5000490717D4C168C943490713D46FF0040186
:100F60000161022020772068806910F4407F2046CC
:100F700002D0FFF7CAFF04E000F07BF8204600F043
:100F800079F8257720680169C943090716D4C16833
:100F9000C943090712D46FF00801016104202077CA
:100FA0002068C0698007204602D0FFF7AEFF04E04A
:100FB00000F05FF8204600F05DF8257720680169B1
:100FC000C943C90617D4C168C943C90613D46FF011
:100FD00010010161082020772068C06910F4407F6B
:100FE000204602D0FFF791FF04E000F042F82046CF
:100FF00000F040F8257720680169C943C90708D186
:10100000C168C943C90704D1891E0161204600F0A7
:1010100033F820680169C943090609D4C168C94386
:10102000090605D46FF0800101612046FFF742FEFA
:1010300020680169C943490609D4C168C943490602
:1010400005D46FF040010161204600F03BF82068B4
:101050000169C94389060BD4C168C943890607D40D
:101060006FF0200101612046BDE87040FFF723BE0C
:1010700070BD704770470000104910B588421CD100
:101080000F4C6078002818D004F11400E17841700A
:1010900021798170E2686421B2FBF1F3C370B2FB85
:1010A000F1F301FB1321017101460448FF230722DC
:1010B000483000F0E5F90020607010BD2C000020E1
:1010C000000000207047704770470000F8B50268C4
:1010D00004461068D168536910F00F0F4FF00005F7
:1010E00053D003F0010601F4907737435FD0C20775
:1010F00005D0CA0503D5226C42F0010222644207E2
:1011000005D5DA0703D0226C42F00202226482077E
:1011100005D5DA0703D0226C42F0040222640207EC
:1011200007D501F02002324303D0226C42F00802BE
:101130002264226C002A34D0800604D5880602D5A9
:10114000204600F05EFB20684069216CC0F38010EF
:10115000090700D430B3204600F03BFB206841690A
:1011600049061BD5416921F040014161A06BA8B13E
:1011700058494163A06BFFF7D1F8002811D0A06B4C
:10118000416B01B0BDE8F040084783060FD58B06E0
:101190000DD52046BDE8F84000F033BB2046FFF7F0
:1011A00093FFF8BD2046FFF78FFF2564F8BD266B3F
:1011B0002023012E52D1C60650D5CE064ED510683A
:1011C00050680090506940062AD5A16B08684068B5
:1011D0000004000CEAD0A68D8642E7D9E085886934
:1011E000202818D0D06820F48070D0602068416931
:1011F00021F0010141612068416921F04001416114
:1012000084F83E3025632068C16821F01001C16078
:10121000A06BFFF760F8A08DE18D401A81B219E054
:10122000A08DE18D401A81B2E08D0028BED000294A
:10123000BCD0D06820F49070D0602068426922F061
:101240000102426184F83E3025632068C26822F0C2
:101250001002C2602046FFF736FFF8BD05062BD509
:101260000D0629D594F83D002128F6D1A068B0F5E7
:10127000805F01D12069B0B1206A411C21622168E0
:1012800000784860E08C401E0004000CE084E4D14B
:101290002068C16821F08001C1602068C16841F008
:1012A0004001C160F8BD206A0088C0F308005060AA
:1012B000206A801C2062E5E74006F3D54806F1D598
:1012C000D168204621F04001D16084F83D3000F023
:1012D00030F9F8BDC317000870B5040004D094F8C5
:1012E0003D00002510B106E0012070BD84F83C509F
:1012F000204600F023F8242084F83D002068C168CF
:1013000021F40051C160204600F0D6FA206801693E
:1013100021F4904101612068416921F02A01416175
:101320002068C16841F40051C1602564202084F820
:101330003D0084F83E00002070BD000030B585B04F
:101340000024009401940294039400681849884290
:101350002CD11848816941F480418161816901F48F
:1013600080410491816941F0040181618069124DDD
:1013700000F0040004904FF40070009002200190EF
:101380000320039069462846FFF760F82815CDE949
:101390000004694628460294FFF758F800221146D7
:1013A0002520FFF7C5F92520FFF7B4F905B030BDBA
:1013B00000380140001002400008014090F83E3023
:1013C000202B0ED159B152B190F83C30012B08D0EE
:1013D000012380F83C300023036300F0C9BA0120E8
:1013E000704702207047000070B5234900230A7837
:1013F000FF2A30D221484C798454521CD2B20A7050
:10140000024412F8014C0A2C2AD112F8022C0D2A9F
:1014100026D145780124AA2D0BD1C278AA2A08D159
:101420000279AA2A05D18279AA2A02D1C279AA2AE6
:101430001FD0114A921D1570C678057906EB8606F5
:1014400005EB46055570C579807900EB800005EB0A
:10145000400090708C700B7040210848FEF7D6FE5B
:101460000549BDE8704005480122491D4438FFF791
:10147000A5BF4C70EFE7000000000020B80000207E
:101480002DE9F843044690F83D001F4616460D46E8
:1014900020284CD1C5B1BEB194F83C00012846D0FB
:1014A000012084F83C004FF00008C4F8408021205F
:1014B00084F83D00FFF7D0F8A6848146E684A06852
:1014C000B0F5805F03D004E00120BDE8F883206917
:1014D00028B12E465FF0000584F83C800EE000261F
:1014E000FAE78021204600F05EFAA0B9AEB116F806
:1014F000010B21684860E08C401EE084E08C4B4684
:101500004FF0000200970028EBD14FF04001204639
:1015100000F049FA30B10320D7E735F8020BC0F3E9
:101520000800E6E7202084F83D000020CDE70220F7
:10153000CBE77047FEE700002DE9F04385B00024BB
:1015400027480094019402940394816941F01001AA
:101550008161816901F010010491816941F02001EC
:101560008161816901F020010491816941F00401E8
:1015700081618069DFF86C8000F004000490012232
:1015800003214046FFF763F8DFF85C900122072152
:101590004846FFF75CF803260227012503970096CB
:1015A000CDE9015469464046FEF750FF04208DE81E
:1015B000910069464046FEF749FF0720CDE9000546
:1015C000CDE9024669464846FEF740FF18208DE8FF
:1015D000310069464846FEF739FF05B0BDE8F083A3
:1015E00000100240001001400008014010B586B014
:1015F00000241748009401940294039404944FF03B
:1016000080410594016040F2CF21C0E901143121ED
:10161000C0E9031480218161FFF78CFB08B172B629
:10162000FEE74FF48050009069460948FFF702FC3E
:1016300008B172B6FEE7049404A905480594FFF7C3
:101640003BFB002801D072B6FEE706B010BD0000DB
:101650002C000020FEE7FEE770477047FFF702B856
:1016600030B58FB028216846FEF7D0FD14210AA8B6
:10167000FEF7CCFD01210804CDE9001000240294FE
:1016800002250491CDE907504FF4E0100990684617
:10169000FFF76CF908B172B6FEE70F20CDE90A0535
:1016A0004FF48060CDE90C4002210AA80E94FFF7A8
:1016B00071F8002801D072B6FEE70FB030BD704758
:1016C0000148FFF723BC00002C000020F0B50268A1
:1016D0001C4B1D4D1D4E1E4F1E4C4FF0804C984212
:1016E00009D0A04207D0604505D0A84203D0B0423F
:1016F00001D0B84204D122F0700E4A6842EA0E02CC
:10170000984209D0A04207D0604505D0A84203D036
:10171000B04201D0B84203D122F44075CA682A43CE
:101720004D6922F080022A4302608A68C2620A6818
:101730008262984201D0A04201D10969016301216E
:101740004161F0BD002C0140000400400008004051
:10175000000C00400034014010B5846842EA0322C6
:1017600024F47F440A432243826010BD826822F041
:1017700070020A4342F007018160704710B5036AA6
:10178000046A24F001040462846924F0F00444EA49
:10179000021423F00A020A438461026210BD10B5EC
:1017A000036A23F0100303628369046A23F470431D
:1017B00043EA023224F0A00343EA0111826101628C
:1017C00010BD10B5406A0021C185C184FFF77CFCC3
:1017D00010BD0168CA6822F49072CA6001684A6943
:1017E00022F001024A61016B012904D10168CA6833
:1017F00022F01002CA60202180F83E10002101630F
:10180000704708B590F83E10222901D0022008BD8B
:1018100082684FF480539A4201D1016921B1816AF3
:101820009A421BD04AB10AE00268816A5268C2F348
:1018300008020A80816A891C08E0026972B10268A4
:10184000526802F07F020A70816A491C8162C18D70
:10185000491E0904090CC18503D019E002685268C9
:10186000F1E70168CA6822F02002CA600168CA680C
:1018700022F48072CA6001684A6922F001024A615A
:10188000202180F83E10016B012903D0FFF7ACFD49
:10189000002008BD002101630168CA6822F010021F
:1018A000CA6001680A68D20602D50A6849680091D0
:1018B000818DFFF708FCEBE770B50446006801690D
:1018C000E26821F44051114301612169A068084395
:1018D000616908432168CA6841F20C639A43024374
:1018E000CA6020684169A26921F4407111434161D5
:1018F0001E492068884202D1FEF7F2FF01E0FEF7A0
:10190000DFFF00EBC00101EB001260686421800082
:10191000B2FBF0F3B3FBF1F36FF018067343B2FBC5
:10192000F0F5B2FBF0F605EB8305322303EB05156A
:10193000B5FBF1F5B6FBF1F605F0F00505EB061584
:10194000B2FBF0F6B2FBF0F0B0FBF1F06FF0180272
:10195000504306EB800003EB0010B0FBF1F0216870
:1019600000F00F002844886070BD0000003801407E
:1019700081628285C28500210164222280F83E2096
:1019800080F83C100168CA6842F48072CA6001683D
:101990004A6942F001024A610068C16841F02001D1
:1019A000C160002070472DE9F041984617460E4669
:1019B0000446069D1DE0681C1BD02DB1FEF74CFEB1
:1019C000A0EB0800A84214D92068C16821F4D071A6
:1019D000C1602068416921F001014161202084F843
:1019E0003D0084F83E00002084F83C000320BDE860
:1019F000F0812068006836EA000004D00020B84278
:101A0000D9D00020F3E70120F9E700000148FFF7F3
:101A10005DBB000074000020FEE70907090E0028E6
:101A200004DB00F1E02080F80014704700F00F00A4
:101A300000F1E02080F8141D70470000FEF71AFE48
:101A4000FFF70EFEFFF778FD584857494FF00008A2
:101A500001604FF47A31C0E901180C21C0F80C8004
:101A6000C0E90481C0F81880C0F81C80FFF734FC7E
:101A700008B172B6FEE7FFF7B9FD01224C494B48A9
:101A8000FFF79CFC49484838FFF79EF9494E002271
:101A900001213046FEF7DBFDDFF814914FF0000B1B
:101AA00009F10109DA465D46A9F10604424F08E052
:101AB000A07848B900224149142000F085F8C4F804
:101AC0000C80E0780028F3D1012202213C48FEF787
:101AD000BEFDA07810B399F801204846E2B18178A4
:101AE000D1B10123237199F80000012800D0002012
:101AF00083465508084600F005FA01464FF07C5031
:101B000000F022F92F4900F011FA00F0DFF98246C7
:101B1000AD0084F8028003E084F80280207950B39D
:101B2000002D28DD5A463946504600F04DF8012870
:101B30000BD0022813D00328C6D184F80480A9F85A
:101B40000080002589F80280BEE76D1E002DBBDCF9
:101B500084F80480A9F8008089F80280B4E784F84A
:101B60000480B1E7A078B8B9012239462D2000F0F1
:101B70002BF8012810D108213046FEF763FD00281C
:101B8000F0D009E0A07800289ED1002239462D200F
:101B900000F01AF8012897D110213046FEF752FDC7
:101BA000002891D1EEE700000038014074000020C9
:101BB00005000020000801400000B4420000F04190
:101BC0000010014000007A442DE9F84F92460A4681
:101BD00080465749104600F0B7F800F077F90746FD
:101BE000BAF1000F0FD0002202215248FEF72FFD5C
:101BF0000025012408EBD87040102E46AB46DFF8D4
:101C00003891009067E00122EEE700BF99F80200EA
:101C100008B1022461E004214848FEF713FD0128C1
:101C200002D1BAF1000F08D004214448FEF70AFDA2
:101C300060B1BAF1010F09D010E0012211463D4810
:101C4000FEF705FD89F803B0032452E000220121CC
:101C50003848FEF7FCFC012189F80310002204211A
:101C60003448FEF7F4FC4FF0E02290693449DFF885
:101C7000D4C0DDF800800968B1FBFCF3B1FBFCF1D6
:101C800003FB08F3A3EB51014FEA0208D8F8182030
:101C9000821A8A42FAD3012204212648FEF7D7FC91
:101CA000D8F818104046264A264BDDF80080126806
:101CB000B2FBF3FCB2FBF3F20CFB08FCACEB520200
:101CC0008369CB1A9342FBD3002202211B48FEF703
:101CD000BEFC6D1C761CBE4298DB99F8031048468A
:101CE00039B10169BAF1010F08D0491B0161C1681E
:101CF0000AE0C9F80CB0C9F810B015E02944F5E7BE
:101D00000269203A0261491C0269202AF8DA6FF060
:101D10001F03C16003E0026920320261491E0269AB
:101D20009A42F8DDC9F80C102046BDE8F88F000093
:101D30006666663D0008014000000020001001407A
:101D40002800002040420F004FF47F0C1CEAD01204
:101D50001EBF1CEAD11392EA0C0F93EA0C0F00F09D
:101D6000858090EA010F48BF42F4807240F4000C75
:101D700041F400002CF07F4120F07F4000B581420B
:101D8000A2EB03020FF2081CACEB504EC0F10000B6
:101D90009EF800E04FEA4E0E00FB0EFC38BF4900F3
:101DA0004FEA2C1C02F5FA020CFB0EF34FEACE1E92
:101DB0004FEA112C4FEAC1210EEB635E42EB224247
:101DC0000EFB0CFC4FEA1C5300FB03114FEA112CD5
:101DD0004FEA01310EFB0CFC4FEADC4C00FB0C110E
:101DE000C14228BF09184CEB03335DF804EB10EB3C
:101DF000410143EBC250B2F57C0F38BF704729D583
:101E000012F0F00F1CBF00F1C04000F0004070471E
:101E1000008182838485868788898B8C8D8E8F91C3
:101E20009293959697999A9C9D9FA0A2A3A5A7A8E7
:101E3000AAACAEB0B2B3B5B7B9BCBEC0C2C5C7C913
:101E4000CCCED1D4D7D9DCDFE2E6E9ECF0F3F7FA77
:101E5000FE0000004FEA400C0CF1807CBCF17E4F8C
:101E600028BF7047B0F1C04000F027B990EA010FD9
:101E70000CEAD11348BF42F48072624538BF634513
:101E800007D213F47F0F16D080EA010000F0004063
:101E9000704710B500F0CBF8097EFC3E00F005B8A5
:101EA00080EA010000F00040704780EA010000F085
:101EB000004000F002B912F47F0F04BF02487047DF
:101EC00080EA010000F0F9B80000C07F41000B0E6D
:101ED000D3F19E0208D950F400034FEA032323FAFA
:101EE00002F048BF4042704710B500F0A0F800BFB4
:101EF00049922480002070476FF0004282EA20005F
:101F000070470000B0FA80F310FA03F2C3F19D03AA
:101F10000AD0D90501EB1220530638BF704700F1F3
:101F2000010008BF20F00100704700004FF47F0C53
:101F30001CEAD0121EBF1CEAD11392EA0C0F93EADE
:101F40000C0F00F0478090EA010F48BF42F4807206
:101F50004FF0004C4CEA00204CEA012102EB030256
:101F6000A0FB0113A2F50002002918BF43F00103F2
:101F70005B0028BF4FEA330342EB22425FEA132C97
:101F80004CEBC2502EBFBCEB436FB2F57C0F7047D9
:101F90004FEA036CBCF1004F08BF20F00100B2F51E
:101FA0007C0F38BF70470BD582F0FF0212F5803FDF
:101FB000C8BF704700F1C040D8BF00F00040704774
:101FC00000F5000C5FEA4C0C48BF7047B0F1C04010
:101FD00000F073B890EA010F0CEAD11348BF42F445
:101FE0008072624538BF634504D280EA010000F088
:101FF0000040704710B500F01AF800BF8900013E9C
:1020000000F007B800F009B85FEA410C5FEA1C6C09
:1020100008D080EA010000F050B85FEA400C5FEAA7
:102020001C6CF6D14FF00040A0F5800070470EF117
:10203000020E2EF0030E5EF8044B244204D44FEA45
:102040004102B2F17F4F11D84FEA4003B3F17F4F05
:102050000CD80ED14FEAD07CB2F17F4F0CEB4C0C78
:102060000CF1020C08BF4CEBD17C04E04FF0080CE3
:1020700001E04FEAD17C0CEB4C0324FA03F404F0AA
:102080000704B4F1040C06D20EEB840CBDE810403A
:102090004CF0010C6047DFE80CF0070802024FF03B
:1020A0000040A0F5800010BD0846420018BFD2F1E4
:1020B000807288BF00F0004010BDFF2141EAD0507F
:1020C000C00570470000000000000000010203048A
:1020D000060708090000000001020304FC200008B4
:1020E000000000202C0000006C01000828210008DE
:1020F0002C0000202C0700008801000800000001CF
:1021000000000000000000000000000000000000CF
:10211000FF000000000D0A00010000001000000098
:08212000000000000024F4009F
:0400000508000131BD
:00000001FF
